{
  "_format": "hh3-artifact-1",
  "contractName": "BLT_NFT",
  "sourceName": "contracts/bltNft.sol",
  "abi": [
    {
      "inputs": [],
      "stateMutability": "nonpayable",
      "type": "constructor"
    },
    {
      "anonymous": false,
      "inputs": [
        {
          "indexed": true,
          "internalType": "address",
          "name": "owner",
          "type": "address"
        },
        {
          "indexed": true,
          "internalType": "address",
          "name": "approved",
          "type": "address"
        },
        {
          "indexed": true,
          "internalType": "uint256",
          "name": "tokenId",
          "type": "uint256"
        }
      ],
      "name": "Approval",
      "type": "event"
    },
    {
      "anonymous": false,
      "inputs": [
        {
          "indexed": true,
          "internalType": "address",
          "name": "owner",
          "type": "address"
        },
        {
          "indexed": true,
          "internalType": "address",
          "name": "operator",
          "type": "address"
        },
        {
          "indexed": false,
          "internalType": "bool",
          "name": "approved",
          "type": "bool"
        }
      ],
      "name": "ApprovalForAll",
      "type": "event"
    },
    {
      "anonymous": false,
      "inputs": [
        {
          "indexed": false,
          "internalType": "address",
          "name": "operator",
          "type": "address"
        },
        {
          "indexed": false,
          "internalType": "address",
          "name": "from",
          "type": "address"
        },
        {
          "indexed": false,
          "internalType": "uint256",
          "name": "tokenId",
          "type": "uint256"
        },
        {
          "indexed": false,
          "internalType": "bytes",
          "name": "data",
          "type": "bytes"
        }
      ],
      "name": "Received",
      "type": "event"
    },
    {
      "anonymous": false,
      "inputs": [
        {
          "indexed": true,
          "internalType": "address",
          "name": "from",
          "type": "address"
        },
        {
          "indexed": true,
          "internalType": "address",
          "name": "to",
          "type": "address"
        },
        {
          "indexed": true,
          "internalType": "uint256",
          "name": "tokenId",
          "type": "uint256"
        }
      ],
      "name": "Transfer",
      "type": "event"
    },
    {
      "inputs": [
        {
          "internalType": "uint256",
          "name": "",
          "type": "uint256"
        }
      ],
      "name": "_ownerOfNft",
      "outputs": [
        {
          "internalType": "address",
          "name": "",
          "type": "address"
        }
      ],
      "stateMutability": "view",
      "type": "function"
    },
    {
      "inputs": [],
      "name": "admin",
      "outputs": [
        {
          "internalType": "address",
          "name": "",
          "type": "address"
        }
      ],
      "stateMutability": "view",
      "type": "function"
    },
    {
      "inputs": [
        {
          "internalType": "address",
          "name": "to",
          "type": "address"
        },
        {
          "internalType": "uint256",
          "name": "tokenId",
          "type": "uint256"
        }
      ],
      "name": "approve",
      "outputs": [],
      "stateMutability": "nonpayable",
      "type": "function"
    },
    {
      "inputs": [
        {
          "internalType": "address",
          "name": "owner",
          "type": "address"
        }
      ],
      "name": "balanceOf",
      "outputs": [
        {
          "internalType": "uint256",
          "name": "balance_",
          "type": "uint256"
        }
      ],
      "stateMutability": "view",
      "type": "function"
    },
    {
      "inputs": [
        {
          "internalType": "uint256",
          "name": "tokenId",
          "type": "uint256"
        }
      ],
      "name": "getApproved",
      "outputs": [
        {
          "internalType": "address",
          "name": "operator",
          "type": "address"
        }
      ],
      "stateMutability": "view",
      "type": "function"
    },
    {
      "inputs": [
        {
          "internalType": "address",
          "name": "owner",
          "type": "address"
        },
        {
          "internalType": "address",
          "name": "operator",
          "type": "address"
        }
      ],
      "name": "isApprovedForAll",
      "outputs": [
        {
          "internalType": "bool",
          "name": "",
          "type": "bool"
        }
      ],
      "stateMutability": "view",
      "type": "function"
    },
    {
      "inputs": [
        {
          "internalType": "address",
          "name": "operator",
          "type": "address"
        },
        {
          "internalType": "address",
          "name": "from",
          "type": "address"
        },
        {
          "internalType": "uint256",
          "name": "tokenId",
          "type": "uint256"
        },
        {
          "internalType": "bytes",
          "name": "data",
          "type": "bytes"
        }
      ],
      "name": "onERC721Received",
      "outputs": [
        {
          "internalType": "bytes4",
          "name": "",
          "type": "bytes4"
        }
      ],
      "stateMutability": "nonpayable",
      "type": "function"
    },
    {
      "inputs": [
        {
          "internalType": "uint256",
          "name": "tokenId",
          "type": "uint256"
        }
      ],
      "name": "ownerOf",
      "outputs": [
        {
          "internalType": "address",
          "name": "owner_",
          "type": "address"
        }
      ],
      "stateMutability": "view",
      "type": "function"
    },
    {
      "inputs": [
        {
          "internalType": "address",
          "name": "from",
          "type": "address"
        },
        {
          "internalType": "address",
          "name": "to",
          "type": "address"
        },
        {
          "internalType": "uint256",
          "name": "tokenId",
          "type": "uint256"
        }
      ],
      "name": "safeTransferFrom",
      "outputs": [],
      "stateMutability": "nonpayable",
      "type": "function"
    },
    {
      "inputs": [
        {
          "internalType": "address",
          "name": "from",
          "type": "address"
        },
        {
          "internalType": "address",
          "name": "to",
          "type": "address"
        },
        {
          "internalType": "uint256",
          "name": "tokenId",
          "type": "uint256"
        },
        {
          "internalType": "bytes",
          "name": "data",
          "type": "bytes"
        }
      ],
      "name": "safeTransferFrom",
      "outputs": [],
      "stateMutability": "nonpayable",
      "type": "function"
    },
    {
      "inputs": [
        {
          "internalType": "address",
          "name": "operator",
          "type": "address"
        },
        {
          "internalType": "bool",
          "name": "_approved",
          "type": "bool"
        }
      ],
      "name": "setApprovalForAll",
      "outputs": [],
      "stateMutability": "nonpayable",
      "type": "function"
    },
    {
      "inputs": [
        {
          "internalType": "uint256",
          "name": "tokenId",
          "type": "uint256"
        }
      ],
      "name": "tokenURI",
      "outputs": [
        {
          "internalType": "string",
          "name": "",
          "type": "string"
        }
      ],
      "stateMutability": "view",
      "type": "function"
    },
    {
      "inputs": [
        {
          "internalType": "address",
          "name": "from",
          "type": "address"
        },
        {
          "internalType": "address",
          "name": "to",
          "type": "address"
        },
        {
          "internalType": "uint256",
          "name": "tokenId",
          "type": "uint256"
        }
      ],
      "name": "transferFrom",
      "outputs": [],
      "stateMutability": "nonpayable",
      "type": "function"
    }
  ],
  "bytecode": "0x60e060405260366080818152906110e660a0395f9061001e908261016b565b5034801561002a575f5ffd5b50600680546001600160a01b031916331790555f5b6005811015610059576100518161005f565b60010161003f565b5061024a565b305f9081526001602081905260408220805491929091610080908490610225565b90915550505f8181526002602052604080822080546001600160a01b0319163090811790915590518392907fddf252ad1be2c89b69c2b068fc378daa952ba7f163c4a11628f55a4df523b3ef908290a450565b634e487b7160e01b5f52604160045260245ffd5b600181811c908216806100fb57607f821691505b60208210810361011957634e487b7160e01b5f52602260045260245ffd5b50919050565b601f82111561016657805f5260205f20601f840160051c810160208510156101445750805b601f840160051c820191505b81811015610163575f8155600101610150565b50505b505050565b81516001600160401b03811115610184576101846100d3565b6101988161019284546100e7565b8461011f565b6020601f8211600181146101ca575f83156101b35750848201515b5f19600385901b1c1916600184901b178455610163565b5f84815260208120601f198516915b828110156101f957878501518255602094850194600190920191016101d9565b508482101561021657868401515f19600387901b60f8161c191681555b50505050600190811b01905550565b8082018082111561024457634e487b7160e01b5f52601160045260245ffd5b92915050565b610e8f806102575f395ff3fe608060405234801561000f575f5ffd5b50600436106100cb575f3560e01c806370a0823111610088578063b88d4fde11610063578063b88d4fde14610214578063c87b56dd14610227578063e985e9c514610247578063f851a4401461026a575f5ffd5b806370a08231146101a35780637f78b69c146101d9578063a22cb46514610201575f5ffd5b8063081812fc146100cf578063095ea7b314610114578063150b7a021461012957806323b872dd1461015557806342842e0e146101685780636352211e1461017b575b5f5ffd5b6100f76100dd366004610aee565b5f908152600360205260409020546001600160a01b031690565b6040516001600160a01b0390911681526020015b60405180910390f35b610127610122366004610b20565b61027d565b005b61013c610137366004610b48565b610304565b6040516001600160e01b0319909116815260200161010b565b610127610163366004610bdd565b610355565b610127610176366004610bdd565b6105a6565b6100f7610189366004610aee565b5f908152600260205260409020546001600160a01b031690565b6101cb6101b1366004610c17565b6001600160a01b03165f9081526001602052604090205490565b60405190815260200161010b565b6100f76101e7366004610aee565b60026020525f90815260409020546001600160a01b031681565b61012761020f366004610c37565b61061b565b610127610222366004610b48565b6106ac565b61023a610235366004610aee565b610834565b60405161010b9190610c70565b61025a610255366004610ca5565b6108c9565b604051901515815260200161010b565b6006546100f7906001600160a01b031681565b6001600160a01b0382166102ac5760405162461bcd60e51b81526004016102a390610cd6565b60405180910390fd5b5f8181526003602052604080822080546001600160a01b0319166001600160a01b0386169081179091559051839233917f8c5be1e5ebec7d5bd14f71427d1e84f3dd0314c0f7b2291e5b200ac8c7c3b9259190a45050565b5f7ed9411ae77b2bacabe5cbe62a2abdbeb78992a0182c6f3c83e0029c7615d6b6868686868660405161033b959493929190610d1b565b60405180910390a150630a85bd0160e11b95945050505050565b6001600160a01b0382166103ab5760405162461bcd60e51b815260206004820152601f60248201527f496e76616c6964206164647265737320746f207472616e7366657220746f210060448201526064016102a3565b5f818152600260205260409020546001600160a01b038481169116146104135760405162461bcd60e51b815260206004820181905260248201527f54686973206973206e6f7420746865206f776e6572206f6620746865204e465460448201526064016102a3565b6001600160a01b03831633148061044257505f818152600360205260409020546001600160a01b038481169116145b8061046f5750335f9081526004602090815260408083206001600160a01b038716845290915290205460ff165b6104d45760405162461bcd60e51b815260206004820152603060248201527f596f7520646f6e7420686176652074686520617574686f7269747920746f207460448201526f1c985b9cd9995c881d1a1a5cc813919560821b60648201526084016102a3565b5f81815260036020908152604080832080546001600160a01b03191690556001600160a01b03861683526001918290528220805491929091610517908490610d7f565b90915550506001600160a01b0382165f9081526001602081905260408220805491929091610546908490610d92565b90915550505f8181526002602052604080822080546001600160a01b0319166001600160a01b0386811691821790925591518493918716917fddf252ad1be2c89b69c2b068fc378daa952ba7f163c4a11628f55a4df523b3ef91a4505050565b604051635c46a7ef60e11b81526001600160a01b0380851660048301528316602482015260448101829052608060648201525f6084820152309063b88d4fde9060a4015f604051808303815f87803b158015610600575f5ffd5b505af1158015610612573d5f5f3e3d5ffd5b50505050505050565b6001600160a01b0382166106415760405162461bcd60e51b81526004016102a390610cd6565b335f8181526004602090815260408083206001600160a01b03871680855290835292819020805460ff191686151590811790915590519081529192917f17307eab39ab6107e8899845ad3d59bd9653f200f220920489ca2b5937696c31910160405180910390a35050565b6040516323b872dd60e01b81526001600160a01b038087166004830152851660248201526044810184905230906323b872dd906064015f604051808303815f87803b1580156106f9575f5ffd5b505af115801561070b573d5f5f3e3d5ffd5b505050506001600160a01b0384163b156107ec57604051630a85bd0160e11b808252906001600160a01b0386169063150b7a02906107559033908a90899089908990600401610d1b565b6020604051808303815f875af1158015610771573d5f5f3e3d5ffd5b505050506040513d601f19601f820116820180604052508101906107959190610da5565b6001600160e01b031916146107ec5760405162461bcd60e51b815260206004820152601860248201527f5265636569766572206e6f7420696d706c656d656e746564000000000000000060448201526064016102a3565b82846001600160a01b0316866001600160a01b03167fddf252ad1be2c89b69c2b068fc378daa952ba7f163c4a11628f55a4df523b3ef60405160405180910390a45050505050565b5f818152600260205260409020546060906001600160a01b03166108915760405162461bcd60e51b8152602060048201526014602482015273151bdad95b88191bd95cc81b9bdd08195e1a5cdd60621b60448201526064016102a3565b6108996108f8565b6108a283610987565b6040516020016108b3929190610de3565b6040516020818303038152906040529050919050565b6001600160a01b038083165f9081526004602090815260408083209385168352929052205460ff165b92915050565b60605f805461090690610e0d565b80601f016020809104026020016040519081016040528092919081815260200182805461093290610e0d565b801561097d5780601f106109545761010080835404028352916020019161097d565b820191905f5260205f20905b81548152906001019060200180831161096057829003601f168201915b5050505050905090565b60605f61099383610a17565b60010190505f8167ffffffffffffffff8111156109b2576109b2610e45565b6040519080825280601f01601f1916602001820160405280156109dc576020820181803683370190505b5090508181016020015b5f19016f181899199a1a9b1b9c1cb0b131b232b360811b600a86061a8153600a85049450846109e657509392505050565b5f8072184f03e93ff9f4daa797ed6e38ed64bf6a1f0160401b8310610a555772184f03e93ff9f4daa797ed6e38ed64bf6a1f0160401b830492506040015b6d04ee2d6d415b85acef81000000008310610a81576d04ee2d6d415b85acef8100000000830492506020015b662386f26fc100008310610a9f57662386f26fc10000830492506010015b6305f5e1008310610ab7576305f5e100830492506008015b6127108310610acb57612710830492506004015b60648310610add576064830492506002015b600a83106108f25760010192915050565b5f60208284031215610afe575f5ffd5b5035919050565b80356001600160a01b0381168114610b1b575f5ffd5b919050565b5f5f60408385031215610b31575f5ffd5b610b3a83610b05565b946020939093013593505050565b5f5f5f5f5f60808688031215610b5c575f5ffd5b610b6586610b05565b9450610b7360208701610b05565b935060408601359250606086013567ffffffffffffffff811115610b95575f5ffd5b8601601f81018813610ba5575f5ffd5b803567ffffffffffffffff811115610bbb575f5ffd5b886020828401011115610bcc575f5ffd5b959894975092955050506020019190565b5f5f5f60608486031215610bef575f5ffd5b610bf884610b05565b9250610c0660208501610b05565b929592945050506040919091013590565b5f60208284031215610c27575f5ffd5b610c3082610b05565b9392505050565b5f5f60408385031215610c48575f5ffd5b610c5183610b05565b915060208301358015158114610c65575f5ffd5b809150509250929050565b602081525f82518060208401528060208501604085015e5f604082850101526040601f19601f83011684010191505092915050565b5f5f60408385031215610cb6575f5ffd5b610cbf83610b05565b9150610ccd60208401610b05565b90509250929050565b60208082526025908201527f496e76616c6964206164647265737320746f206772616e7420617070726f76616040820152646c20746f2160d81b606082015260800190565b6001600160a01b03868116825285166020820152604081018490526080606082018190528101829052818360a08301375f81830160a090810191909152601f909201601f19160101949350505050565b634e487b7160e01b5f52601160045260245ffd5b818103818111156108f2576108f2610d6b565b808201808211156108f2576108f2610d6b565b5f60208284031215610db5575f5ffd5b81516001600160e01b031981168114610c30575f5ffd5b5f81518060208401855e5f93019283525090919050565b5f610df7610df18386610dcc565b84610dcc565b64173539b7b760d91b8152600501949350505050565b600181811c90821680610e2157607f821691505b602082108103610e3f57634e487b7160e01b5f52602260045260245ffd5b50919050565b634e487b7160e01b5f52604160045260245ffdfea2646970667358221220200c4163c14f6cd2f136e4c657c40151c0cf69d6bf95895be1adcb6ccdef1d3264736f6c634300081e0033697066733a2f2f516d594b316f68556a79684241714273344663705a367a3248643935696855374539317232714a4d3432746167662f",
  "linkReferences": {},
  "deployedLinkReferences": {},
  "immutableReferences": {},
  "inputSourceName": "project/contracts/bltNft.sol",
  "buildInfoId": "solc-0_8_30-4649d86cff82b55a3419b399343842bc20ff4e0c"
}